:1000000077C0000094C0000092C0000090C00000C3
:100010009EC100008CC000008AC0000088C00000A3
:1000200086C0000084C0000082C0000080C00000C4
:100030007EC000007CC000007AC0000078C00000D4
:1000400076C0000090C1000072C0000070C00000C7
:100050006EC000006CC000006AC0000068C00000F4
:1000600066C00000D0C1000062C0000060C0000097
:100070005EC000005CC000005AC0000058C0000014
:1000800056C0000054C0000052C0000050C0000024
:100090004EC000004CC000004AC0000048C0000034
:1000A00046C0000044C0000042C0000040C0000044
:1000B0003EC000003CC000003AC0000038C0000054
:1000C00036C0000034C0000032C0000030C0000064
:1000D0002EC000002CC000002AC0000028C0000074
:1000E00026C000006364696E6F70737578585B009A
:1000F00011241FBECFEFD1E2DEBFCDBF00E00CBFA9
:1001000012E0A0E0B2E0E4EDF0E100E00BBF02C0DD
:1001100007900D92A238B107D9F722E0A2E8B2E029
:1001200001C01D92A93BB207E1F75BD0D1C768CFF0
:100130005398E9E6F0E0808180688083EB9A82E062
:1001400080936F007894089553985B9A08958BE09C
:10015000809381008AEF90E09093890080938800DB
:1001600008958091890290918A028B33910599F5C7
:100170008091A0029091A1028B33910511F580919D
:10018000A2029091A3028731910569F41092A30213
:100190001092A2021092A1021092A00210928A0262
:1001A00010928902089501969093A3028093A2026F
:1001B0001092A1021092A00210928A02109289025B
:1001C000089501969093A1028093A00210928A0252
:1001D000109289020895019690938A028093890271
:1001E000089587E6E3D0A4DFAFDFB1DF0F2EF9E893
:1001F000AF2EF2E0BF2EF02D0F2EF0EACF2EF2E060
:10020000DF2EF02D0F2EF2EAEF2EF2E0FF2EF02D72
:100210000F2EFBE48F2EF2E09F2EF02D0F2EF5EA2D
:100220006F2EF2E07F2EF02D5524539468944424D1
:1002300041F80AE612E0CCE8D2E0809182028130F7
:1002400081F020F0823009F456C0F7CFD7D0D6D055
:1002500080E092E0C5D0D2D05092840250928202C7
:10026000ECCF8091A402813041F7809188028830E0
:1002700039F0C4D08AE392E0B3D0C0D0BFD036C04A
:10028000BF92AF92DF92CF92FF92EF929F928F92A6
:100290007F926F922ED1109288028DB79EB70A96E8
:1002A0000FB6F8949EBF0FBE8DBF8091A2029091B1
:1002B000A302489760F48091A0029091A102CC978C
:1002C00030F48091890290918A02CC9748F096D0C0
:1002D0008AE392E085D092D091D05092840206C0F9
:1002E0008DD08AE592E07CD0409282021092880202
:1002F0001092A402A2CF80918B02813009F09DCF91
:1003000080918A028F93809189028F938091A102BC
:100310008F938091A0028F938091A3028F938091FD
:10032000A2028F931F930F93DF93CF93B3D0CE018D
:1003300057D017DF1092840210928B028DB79EB7B0
:100340000A960FB6F8949EBF0FBE8DBF76CF1F9250
:100350000F920FB60F921124109282020F900FBECF
:100360000F901F9018951F920F920FB60F921124A5
:100370002F938F939F93809185029091860201968F
:100380009093860280938502873E934039F481E002
:1003900080938B0210928602109285029F918F911A
:1003A0002F910F900FBE0F901F90189592E0909391
:1003B000C000E1ECF0E0908198699083E2ECF0E01D
:1003C0009081966090838093C4001092C500089538
:1003D000E0ECF0E0908195FFFDCF8093C60008959A
:1003E000CF93DF93EC018881882329F02196F0DFF9
:1003F00089918111FCCFDF91CF9108958DE0E8DFE5
:100400008AE0E6CF08951F920F920FB60F92112443
:100410000BB60F922F933F934F935F936F937F93FE
:100420008F939F93AF93BF93EF93FF938091C600F9
:1004300080938702809184028130C9F48091870281
:10044000C7DF809187028D3071F0E0918802809142
:100450008702F0E0EB55FD4F8083809188028F5F2B
:100460008093880204C081E08093A402C7DFFF91DB
:10047000EF91BF91AF919F918F917F916F915F911C
:100480004F913F912F910F900BBE0F900FBE0F9089
:100490001F9018950F931F93CF93DF93CDB7DEB7BF
:1004A0002E970FB6F894DEBF0FBECDBF0E891F8901
:1004B00086E08C831A8309838FEF9FE79E838D8369
:1004C000AE01465E5F4F688D798DCE01019632D0C8
:1004D0002F813885F801E20FF31F10822E960FB698
:1004E000F894DEBF0FBECDBFDF91CF911F910F916A
:1004F0000895CF93DF93CDB7DEB72E970FB6F8945C
:10050000DEBF0FBECDBF85E08C838C899D899A8329
:100510008983AE01485E5F4F6E897F89CE01019667
:100520009ED32E960FB6F894DEBF0FBECDBFDF91DF
:10053000CF9108952F923F924F925F926F927F9248
:100540008F929F92AF92BF92CF92DF92EF92FF92E3
:100550000F931F93CF93DF93CDB7DEB72C970FB6D2
:10056000F894DEBF0FBECDBF7C016B018A01FC0198
:1005700017821682838181FFB0C1CE0101964C01A2
:10058000F7019381F60193FD859193FF81916F01AE
:10059000882309F49EC1853239F493FD859193FF38
:1005A00081916F01853221F4B70190E0DFD4E8CF6B
:1005B000512C312C20E02032A0F48B3269F030F441
:1005C000803259F0833269F420612CC08D3239F0C9
:1005D000803339F4216026C02260246023C0286063
:1005E00021C027FD27C030ED380F3A3078F426FFC0
:1005F00006C0FAE05F9E300D1124532E13C08AE02E
:10060000389E300D1124332E20620CC08E3221F41E
:1006100026FD5FC1206406C08C3611F4206802C03C
:10062000883641F4F60193FD859193FF81916F0126
:100630008111C1CF982F9F7D9554933028F40C5F82
:100640001F4FFFE3F9830DC0833631F0833771F01C
:10065000833509F057C021C0F801808189830E5F7E
:100660001F4F44244394512C540114C03801F2E02C
:100670006F0E711CF801A080B18026FF03C0652DAC
:1006800070E002C06FEF7FEFC5012C8726D42C01EC
:1006900083012C852F77222E16C03801F2E06F0ED1
:1006A000711CF801A080B18026FF03C0652D70E0A9
:1006B00002C06FEF7FEFC5012C8704D42C012C857D
:1006C0002068222E830123FC19C0832D90E0481658
:1006D0005906A0F4B70180E290E048D43A94F5CFEF
:1006E000F50127FC859127FE81915F01B70190E01C
:1006F0003DD431103A94F1E04F1A5108411451049D
:1007000079F7DEC0843611F0893631F5F80127FF1C
:1007100007C060817181828193810C5F1F4F08C087
:1007200060817181072E000C880B990B0E5F1F4FA3
:100730002F76722E97FF09C09095809570956195E0
:100740007F4F8F4F9F4F2068722E2AE030E0A40128
:100750005ED4A82EA81843C0853729F42F7EB22E68
:100760002AE030E025C0F22FF97FBF2E8F36C1F08E
:1007700018F4883579F0ADC0803719F0883721F04A
:10078000A8C02F2F2061B22EB4FE0DC08B2D846027
:10079000B82E09C024FF0AC09F2F9660B92E06C04C
:1007A00028E030E005C020E130E002C020E132E086
:1007B000F801B7FE07C060817181828193810C5F6F
:1007C0001F4F06C06081718180E090E00E5F1F4F77
:1007D000A4011DD4A82EA818FB2DFF777F2E76FE2E
:1007E0000BC0372D3E7FA51450F474FE0AC072FC76
:1007F00008C0372D3E7E05C0BA2C372D03C0BA2C59
:1008000001C0B52C34FF0DC0FE01EA0DF11D808141
:10081000803311F4397E09C032FF06C0B394B3941B
:1008200004C0832F867809F0B39433FD12C030FFE3
:1008300006C05A2CB31418F4530C5B18B32CB31421
:1008400060F4B70180E290E03C8790D3B3943C859C
:10085000F6CFB31410F43B1801C0312C34FF11C093
:10086000B70180E390E03C8781D33C8532FF16C01E
:1008700031FD03C088E790E002C088E590E0B70151
:100880000CC0832F867851F031FF02C08BE201C08B
:1008900080E237FD8DE2B70190E068D3A51430F413
:1008A000B70180E390E062D35A94F8CFAA94F401A0
:1008B000EA0DF11D8081B70190E058D3A110F6CF69
:1008C000332009F45DCEB70180E290E04FD33A9433
:1008D000F7CFF7018681978102C08FEF9FEF2C96AB
:1008E0000FB6F894DEBF0FBECDBFDF91CF911F9141
:1008F0000F91FF90EF90DF90CF90BF90AF909F90BF
:100900008F907F906F905F904F903F902F900895C1
:1009100020FD09C0FC0123FD05C022FF02C0738336
:10092000628351834083089544FD10C046FD10C08A
:10093000DB01FC01AA0FBB1FEE1FFF1F1094D1F7B4
:100940006A0F7B1F8E1F9F1F31E003C033E001C081
:1009500034E0660F771F881F991F3150D1F7620F5F
:10096000711D811D911D08950F931F93CF93DF93E8
:100970008C01C801BDD2EC0197FD06C090D2892B35
:10098000C1F7B801CE012AD3CE01DF91CF911F91DB
:100990000F9108958F929F92AF92BF92CF92DF9264
:1009A000EF92FF920F931F93CF93DF931F92CDB7D8
:1009B000DEB78C01C62E7A0129839AD2AC01552765
:1009C00029814B32510521F04D32510561F42068E7
:1009D000CA94C11002C080E06FC0C801298388D2C8
:1009E000298197FDF8CF322F3D7FD32E322F3073E0
:1009F00039F5803329F5BB24BA94BC0C09F449C0FD
:100A0000C801298375D2298197FD43C0382F3F7DC6
:100A1000383561F48D2D8264D82ECA94CA94CC20C6
:100A2000C1F1C80165D297FF0BC033C026FF04C0D7
:100A30002D2D2260D22E03C03D2D3261D32ECB2C22
:100A4000812C912C540120ED280F283078F0D4FE11
:100A500003C0B801C3D21AC02A3040F0D6FEF9CF85
:100A60002F7D3FEE320F3630A0F727504D2DC501B8
:100A7000B4015ADF4B015C018D2D8260D82ECA94DF
:100A8000CC2051F0C80134D297FFDDCFD1FC04C097
:100A9000A2CF812C912C5401D7FE08C0B094A09411
:100AA00090948094811C911CA11CB11C2D2DB5012A
:100AB000A401C7012DDF81E00F90DF91CF911F913D
:100AC0000F91FF90EF90DF90CF90BF90AF909F90ED
:100AD0008F9008956F927F928F929F92AF92BF9264
:100AE000CF92DF92EF92FF920F931F93CF93DF93FA
:100AF000CDB7DEB7A1970FB6F894DEBF0FBECDBF5E
:100B00005C017A01CE0101966C0180E2F60111923E
:100B10008A95E9F7F501838040E050E0912C712C33
:100B200070E0A1E0B0E0F90183FC859183FE819142
:100B30008F01982F9F01811103C080E090E07AC05F
:100B40008E3519F44115510549F1E72FF0E0E4170E
:100B5000F5073CF48D3559F18D3219F4772001F108
:100B600003C0711001C0982E892F869586958695B1
:100B70008601080F111D892F87703D0101C0660C89
:100B80008A95EAF7F801808186298083991559F0C2
:100B9000991510F49F5FE8CF9150E6CF71E004C043
:100BA0007724739401C0712C4F5F5F4FBCCF7720C7
:100BB00019F08E8180628E83711103C09924939401
:100BC00016C0F6019E012F5D3F4F80818095819375
:100BD000E217F307D1F7F2CFE114F10429F0F7019E
:100BE0008083C70101967C016150912CE9F0C50119
:100BF00069A37ED169A197FD15C0282F269526955A
:100C00002695F601E20FF11D208130E0AC0147701E
:100C1000552702C0359527954A95E2F720FDDCCF90
:100C2000B501DCD1911089CFE114F10411F0F70185
:100C30001082C801A1960FB6F894DEBF0FBECDBFDB
:100C4000DF91CF911F910F91FF90EF90DF90CF90A8
:100C5000BF90AF909F908F907F906F9008954F922C
:100C60005F927F928F929F92AF92BF92CF92DF92CC
:100C7000EF92FF920F931F93CF93DF931F92CDB705
:100C8000DEB76C012B015A01FC0117821682712C10
:100C9000F601F380F201F3FC8591F3FE8191382F88
:100CA0002F01882309F4E5C090E03983F8D0398119
:100CB000892B19F0C60158DEEBCF353241F4F20131
:100CC000F3FC3591F3FE31912F01353259F4C60111
:100CD00039830ED1398197FDCAC03817C9F2B601E0
:100CE0007DD1C7C03A3239F4F3FC3591F3FE31912E
:100CF0002F0151E001C050E0420110E020ED230F30
:100D00002A3088F45260612F70E080E090E040E289
:100D100059830ADE162FF401F3FC3591F3FE31916D
:100D20004F015981EBCF052F232F240151FF03C021
:100D3000111102C09EC01FEF383619F03C3659F031
:100D400011C0F401F3FC2591F3FE21912F01283607
:100D500049F4052F08600460F201F3FC2591F3FECD
:100D600021912F01222309F484C0622F70E084EEC8
:100D700090E029839CD02981892B09F47AC000FD59
:100D800007C0F501E080F180C50102965C0102C058
:100D9000E12CF12C2E3649F4F6014681578160E0B2
:100DA00070E0202FC701B4DD73CF233689F401FF33
:100DB00011E0C6019DD097FD5AC0E114F10429F05D
:100DC000F7018083C70101967C01115091F74BC058
:100DD0002B3551F49201A701612FC6017BDE2C0156
:100DE000892B09F040C03AC0C6012983BDDD2981A5
:100DF00097FD3DC02F3641F128F4243619F12936EC
:100E000031F124C0233769F02537E1F01FC0E11428
:100E1000F10429F0F7018082C70101967C0111508D
:100E200059F0C60165D04C0197FD06C038D0892B1A
:100E300071F3B601C401D2D0E114F104A1F0F701BD
:100E4000108211C0006203C0006101C00064202F45
:100E5000A701612FC6019EDD811105C0F6018381C6
:100E6000807329F406C000FD13CF739411CF77204F
:100E700019F0872D90E002C08FEF9FEF0F90DF9168
:100E8000CF911F910F91FF90EF90DF90CF90BF9087
:100E9000AF909F908F907F905F904F9008959111A9
:100EA00014C1803219F089508550D0F70895FC01A3
:100EB0000590061621F00020D9F7C001089531975A
:100EC000CF010895FC010590615070400110D8F7E2
:100ED000809590958E0F9F1F0895FC016150704082
:100EE00001900110D8F7809590958E0F9F1F08955F
:100EF000CF93DF93EC012B8120FF33C026FF0AC084
:100F00002F7B2B838E819F8101969F838E838A8185
:100F100090E029C022FF0FC0E881F9818081082E6E
:100F2000000C990B009719F420622B831AC031969C
:100F3000F983E8830EC0EA85FB85199597FF09C000
:100F40002B81019611F080E201C080E1822B8B831E
:100F500008C02E813F812F5F3F4F3F832E8399270B
:100F600002C08FEF9FEFDF91CF9108950F931F93F2
:100F7000CF93DF93FB01238121FD03C08FEF9FEF10
:100F800028C022FF16C0468157812481358142172F
:100F9000530744F4A081B1819D012F5F3F4F3183FE
:100FA00020838C93268137812F5F3F4F37832683A1
:100FB00010C0EB01092F182F0084F185E02D199541
:100FC000892BE1F68E819F8101969F838E83812FED
:100FD000902FDF91CF911F910F910895FB012381F5
:100FE00020FF12C026FD10C08F3F3FEF930761F036
:100FF00082832F7D2064238326813781215031090C
:1010000037832683992708958FEF9FEF0895FA017C
:10101000AA27283051F1203181F1E8946F936E7F37
:101020006E5F7F4F8F4F9F4FAF4FB1E03ED0B4E028
:101030003CD0670F781F891F9A1FA11D680F791F69
:101040008A1F911DA11D6A0F711D811D911DA11D7A
:1010500020D009F468943F912AE0269F112430198A
:10106000305D3193DEF6CF010895462F4770405D25
:101070004193B3E00FD0C9F7F6CF462F4F70405DD4
:101080004A3318F0495D31FD4052419302D0A9F72F
:10109000EACFB4E0A6959795879577956795BA9529
:1010A000C9F700976105710508959B01AC010A2EEF
:1010B00006945795479537952795BA95C9F7620FC6
:1010C000731F841F951FA01D0895992788270895D1
:0410D000F894FFCFC2
:1010D400506C6561736520696E70757420637572F8
:1010E40072656E742074696D6520696E20666F7216
:1010F4006D61742068683A6D6D3A73732C2077695A
:10110400746820636F6C6C6F6E004572726F722C22
:101114002074727920616761696E00253032643A07
:10112400253032643A253032640041637475616C51
:101134002074696D652069732000253032643A2576
:101144003032643A25303264080808080808080870
:02115400000099
:00000001FF
